{
  "_format": "hh-sol-artifact-1",
  "contractName": "Resolver",
  "sourceName": "contracts/Resolver.sol",
  "abi": [
    {
      "inputs": [
        {
          "internalType": "address",
          "name": "_admin",
          "type": "address"
        }
      ],
      "stateMutability": "nonpayable",
      "type": "constructor"
    },
    {
      "inputs": [
        {
          "internalType": "uint8",
          "name": "_pt",
          "type": "uint8"
        }
      ],
      "name": "getPaymentToken",
      "outputs": [
        {
          "internalType": "address",
          "name": "",
          "type": "address"
        }
      ],
      "stateMutability": "view",
      "type": "function"
    },
    {
      "inputs": [
        {
          "internalType": "uint8",
          "name": "_pt",
          "type": "uint8"
        },
        {
          "internalType": "address",
          "name": "_v",
          "type": "address"
        }
      ],
      "name": "setPaymentToken",
      "outputs": [],
      "stateMutability": "nonpayable",
      "type": "function"
    }
  ],
  "bytecode": "0x608060405234801561001057600080fd5b5060405161030838038061030883398101604081905261002f91610054565b600080546001600160a01b0319166001600160a01b0392909216919091179055610084565b60006020828403121561006657600080fd5b81516001600160a01b038116811461007d57600080fd5b9392505050565b610275806100936000396000f3fe608060405234801561001057600080fd5b50600436106100365760003560e01c8063321c6aea1461003b578063c6ee427f14610050575b600080fd5b61004e6100493660046101fc565b610098565b005b61007c61005e3660046101da565b60ff166000908152600160205260409020546001600160a01b031690565b6040516001600160a01b03909116815260200160405180910390f35b60ff82166100e15760405162461bcd60e51b815260206004820152601160248201527018d85b9d081cd95d081cd95b9d1a5b995b607a1b60448201526064015b60405180910390fd5b60ff82166000908152600160205260409020546001600160a01b03161561014a5760405162461bcd60e51b815260206004820152601860248201527f63616e6e6f74207265736574207468652061646472657373000000000000000060448201526064016100d8565b6000546001600160a01b031633146101915760405162461bcd60e51b815260206004820152600a60248201526937b7363c9030b236b4b760b11b60448201526064016100d8565b60ff91909116600090815260016020526040902080546001600160a01b0319166001600160a01b03909216919091179055565b803560ff811681146101d557600080fd5b919050565b6000602082840312156101ec57600080fd5b6101f5826101c4565b9392505050565b6000806040838503121561020f57600080fd5b610218836101c4565b915060208301356001600160a01b038116811461023457600080fd5b80915050925092905056fea2646970667358221220cbc7b44327ce28343b44918a69b19216df0500bce29c66cc6ef2089427f6db5664736f6c63430008070033",
  "linkReferences": {},
  "deployedLinkReferences": {}
}